:100000000C9462000C948A000C948A000C948A0070
:100010000C948A000C948A000C948A000C948A0038
:100020000C948A000C948A000C948A000C94A6020A
:100030000C948A000C948A000C948A000C948A0018
:100040000C945E080C948A000C948A000C948A002C
:100050000C948A000C948A000C948A000C948A00F8
:100060000C9478010C948A00000000002400270002
:100070002A0000000000250028002B0000000000DE
:1000800023002600290004040404040404040202DA
:100090000202020203030303030301020408102007
:1000A0004080010204081020010204081020000012
:1000B0000008000201000003040700000000000027
:1000C0000000180D11241FBECFEFD8E0DEBFCDBF5A
:1000D00011E0A0E0B1E0E4E1FDE102C005900D9285
:1000E000A434B107D9F722E0A4E4B1E001C01D9225
:1000F000A536B207E1F710E0C2E6D0E004C02197D0
:10010000FE010E947D0EC136D107C9F70E94A808E2
:100110000C94880E0C94000008950895CF92DF92FD
:10012000EF92FF920F931F93CF93DF936C017A01AD
:100130008B01C0E0D0E0CE15DF0581F0D8016D91D4
:100140008D01D601ED91FC910190F081E02DC60169
:100150000995892B11F02196EECF7E01C701DF9121
:10016000CF911F910F91FF90EF90DF90CF90089566
:1001700085ED8093BC008091BC0084FDFCCF109283
:10018000E801089540918501262F30E0240F311DAC
:1001900021323105DCF42091E8012430C9F4FC015E
:1001A00080E090E0861758F4309185012191DC01C0
:1001B000AB59BE4FA30FB11D2C930196F3CF809185
:1001C0008501680F6093850180E0089581E00895BE
:1001D00082E008950895E091AD018091AC01E817A7
:1001E00030F4F0E0EB5BFE4F808190E008958FEFFC
:1001F0009FEF08959091AD018091AC01981750F454
:10020000E92FF0E0EB5BFE4F208130E09F5F9093A1
:10021000AD0102C02FEF3FEFC90108958091AC01FD
:1002200090E02091AD01821B91090895CF92DF9259
:10023000EF92FF920F931F93CF93DF937C01CB013B
:100240008A012091E901222389F0EB016B01C40EA0
:10025000D51ECC15DD0569F06991D701ED91FC91B2
:100260000190F081E02DC7010995F3CF642F0E9422
:10027000C200C801DF91CF911F910F91FF90EF90C5
:10028000DF90CF900895CF93DF931F92CDB7DEB765
:1002900069832091E9012223D1F020910C022032C0
:1002A00040F021E030E0FC013383228380E090E0E5
:1002B00015C08091EA01E82FF0E0E551FE4F9981E9
:1002C00090838F5F8093EA0180930C0205C061E008
:1002D000CE0101960E94C20081E090E00F90DF9174
:1002E000CF910895089580E090E008950E94830ED4
:1002F0001F920F920FB60F9211242F933F934F939B
:100300005F936F937F938F939F93AF93BF93EF937D
:10031000FF938091B900887F803609F49CC068F50E
:10032000883209F45BC090F4803109F454C038F489
:10033000882309F4F6C0883009F44DC0F6C088312E
:1003400009F44CC0803209F45DC0EFC0803409F478
:1003500068C048F4803309F455C0883309F0E5C01B
:100360008093E601D8C0803509F44FC0883509F480
:100370005DC0883409F0D9C0D6C0883909F4C7C037
:10038000A8F4883709F467C038F4883609F463C0E4
:10039000803709F460C0C9C0883809F4B8C0803912
:1003A00009F45FC0803809F0C0C05BC0803B09F42D
:1003B00086C038F4803A09F466C0883A09F47FC0F0
:1003C000B4C0803C09F4A7C0883C09F4A4C0883BB1
:1003D00009F48AC0AAC08091C30110C09091E501C0
:1003E0008091E401981770F5E091E50181E08E0FAE
:1003F0008093E501F0E0EC53FE4F80818093BB00D9
:1004000085EC86C08093E6018EC0E091E50181E035
:100410008E0F8093E5018091BB00F0E0EC53FE4F1E
:1004200080839091E5018091E4016EC0E091E50147
:1004300081E08E0F8093E5018091BB00F0E0EC53EA
:10044000FE4F80838091E70181116DC081E0809330
:10045000C20184EA61C083E08093E8011092A701A1
:10046000CFCF8091A701803208F051C0E091A70161
:1004700081E08E0F8093A7018091BB00F0E0E957E7
:10048000FE4F8083BDCF85EC8093BC001092E801C5
:100490008091A701803230F4E091A701F0E0E957A4
:1004A000FE4F10826091A70170E0E091A801F091E9
:1004B000A90187E891E009951092A70136C084E070
:1004C0008093E8011092860110928501E091AA01C3
:1004D000F091AB01099580918501811105C081E002
:1004E0008093850110926501E091860181E08E0F75
:1004F00080938601F0E0EB59FE4F80818093BB0032
:100500009091860180918501981708F479CF85E84C
:100510008093BC000AC085EC8093BC001092E80177
:1005200004C01092E6010E94B800FF91EF91BF91C4
:10053000AF919F918F917F916F915F914F913F917B
:100540002F910F900FBE0F901F9018951F920F9232
:100550000FB60F9211242F933F934F935F936F9396
:100560007F938F939F93AF93BF93EF93FF9380916C
:10057000440187FF05C010928500109284001BC0C3
:1005800020914401022E000C330B80913D0290E03B
:100590002817390784F480914401082E000C990B28
:1005A000FC01EE0FFF1F8E0F9F1FFC01E75EFD4F4A
:1005B000808186FD15C0809144018F5F8093440146
:1005C00020914401022E000C330B80913D0290E0FB
:1005D00028173907C4F4809144018C3064F113C0AA
:1005E00080914401082E000C990BFC01EE0FFF1FB7
:1005F0008E0F9F1FFC01E75EFD4F808160E08F73CF
:100600000E94A607D8CF809184009091850004961F
:1006100080349C4918F480E49CE905C080918400F2
:1006200090918500049690938900809388008FEFC5
:10063000809344013BC020918400309185008091DB
:100640004401082E000C990BFC01EE0FFF1F8E0FCA
:100650009F1FFC01E75EFD4F81819281820F931FF6
:10066000909389008093880080914401082E000CAB
:10067000990BFC01EE0FFF1F8E0F9F1FFC01E75E21
:10068000FD4F808186FF12C080914401082E000C2E
:10069000990BFC01EE0FFF1F8E0F9F1FFC01E75E01
:1006A000FD4F808161E08F730E94A607FF91EF915B
:1006B000BF91AF919F918F917F916F915F914F917A
:1006C0003F912F910F900FBE0F901F901895CF93D1
:1006D000C42FFC018081806291E09093E9018093B6
:1006E0000B021092EA0110920C028DE092E00E943F
:1006F00043016C2F8DE092E00E94430181E0CF9195
:100700000C94E405CF93DF93EC018881806291E043
:100710009093E90180930B021092EA0110920C026F
:100720008DE092E00E94430181E00E94E405809107
:10073000E8018111FCCF888191E09093E8019093CA
:10074000E7012FEF2093E6011092E5011092E401FA
:100750009093C3019091C3018062880F892B80938D
:10076000C3018091C201813061F41092C201809175
:10077000C3018093BB008091BC0083FDF8CF85EC62
:1007800001C085EE8093BC008091E8018130E1F3E7
:100790008091E501811103C09091E50101C091E0D4
:1007A000A4ECB1E0E5E4F1E080E0891721F02D91BF
:1007B00021938F5FFACF1092AD018093AC018DE051
:1007C00092E00E94FA00DF91CF910895CF92DF92DC
:1007D000EF92FF920F931F93CF93DF93EC01162FAD
:1007E000042F898D8F3F01F1683008F064C06A964C
:1007F00069E0CE010E94820341E050E001C0440F55
:100800001A95EAF7013011F4482B02C040954823AD
:1008100069E0CE01DF91CF911F910F91FF90EF9092
:10082000DF90CF900C9467038D898F3FC1F1488D85
:10083000013049F421E030E001C0220F6A95EAF767
:10084000242B288F09C081E090E001C0880F6A95B1
:10085000EAF780958423888F60E08F890E94A6073D
:10086000E88CDD88CE8807E010E0F12CB701002E7F
:1008700002C0759567950A94E2F761708C2D0E940D
:10088000A60761E08D2D0E94A60760E08D2D0E94D5
:10089000A6070150110950F761E08F8902C0642F4B
:1008A000812FDF91CF911F910F91FF90EF90DF90FB
:1008B000CF900C94A607DF91CF911F910F91FF90DD
:1008C000EF90DF90CF900895CF93DF93EC0140E05D
:1008D0006E810E94E60341E06E81CE010E94E60334
:1008E00040E06E81CE010E94E6038BE891E0019723
:1008F000F1F7DF91CF910895AF92BF92CF92DF923F
:10090000EF92FF920F931F93CF93DF93EC01898DAA
:100910008E01095F1F4FC62ED12C8F3F09F464C092
:100920005E018AE1A80EB11C69E0C5010E94820344
:10093000F80120E030E061E070E09191EE24E39472
:10094000F12CAB01092E01C0440F0A94EAF740953F
:100950008423A601022E02C0559547950A94E2F71A
:100960004170552701C0440F9A95EAF7842B2F5FF9
:100970003F4F2430310509F7A7010E8002C0440F14
:10098000551F0A94E2F7142F10951823412F69E0A0
:10099000C5010E946703C7010E8002C0880F991F1E
:1009A0000A94E2F7182B412F69E0C5010E94670302
:1009B0000E8002C0EE0CFF1C0A94E2F7E0944E2D6C
:1009C000412369E0C5010E9467038BE891E001972C
:1009D000F1F7DF91CF911F910F91FF90EF90DF9092
:1009E000CF90BF90AF900895E12CF12C5801F80101
:1009F00061918F01CE010E941108A6010E2C02C048
:100A0000559547950A94E2F74170F5016081CE0152
:100A10000E94E603FFEFEF1AFF0A84E0E816F104F4
:100A200029F7CE01DF91CF911F910F91FF90EF90A9
:100A3000DF90CF90BF90AF900C946404AF92BF92C0
:100A4000CF92DF92EF92FF920F931F93CF93DF939A
:100A5000EC01F62E6C810E94E6036D816F3F21F060
:100A600040E0CE010E94E6038F850F2D10E084FF49
:100A70002EC05E0187E0A80EB11CE12CF12C6501AF
:100A8000F50161915F01CE010E941108A8010E2CB1
:100A900002C0559547950A94E2F74170F6016081CE
:100AA000CE010E94E603FFEFEF1AFF0A88E0E81686
:100AB000F10429F7CE01DF91CF911F910F91FF90A3
:100AC000EF90DF90CF90BF90AF900C946404B8018A
:100AD00084E0759567958A95E1F7CE010E947C04C4
:100AE0006F2DCE01DF91CF911F910F91FF90EF906D
:100AF000DF90CF90BF90AF900C947C0441E00E94B7
:100B00001E0581E090E00895833081F028F4813063
:100B100099F08230A1F008958730A9F08830B9F0BB
:100B20008430D1F4809180008F7D03C0809180005B
:100B30008F7780938000089584B58F7702C084B545
:100B40008F7D84BD08958091B0008F7703C0809120
:100B5000B0008F7D8093B00008953FB7F8948091E6
:100B6000610290916202A0916302B091640226B585
:100B7000A89B05C02F3F19F00196A11DB11D3FBFD5
:100B8000BA2FA92F982F8827820F911DA11DB11D63
:100B9000BC01CD0142E0660F771F881F991F4A955F
:100BA000D1F70895009769F0FC0101900020E9F762
:100BB0003197AF01481B590BBC0181E492E00C94C2
:100BC0008E0080E090E00895282F30910C023132A1
:100BD00008F04AC08091E8018111FCCF90910B028E
:100BE00042E04093E8012093E7012FEF2093E601D4
:100BF0001092E5013093E401EBEEF1E0A4ECB1E0FA
:100C000020E0321721F041914D932F5FFACF1092DF
:100C1000C3012091C301990F922B9093C30190912E
:100C2000C201913061F41092C2019091C30190937E
:100C3000BB009091BC0093FDF8CF95EC01C095EE00
:100C40009093BC009091E8019230E1F39091E6011D
:100C50009F3F79F08091E601803241F08091E6017A
:100C6000803331F084E005C081E003C082E001C040
:100C700083E01092EA0110920C021092E9010895AB
:100C80001F93CF93DF93EC01162F60E00E94820345
:100C900041E050E001C0440F1A95EAF7409548231F
:100CA00060E0CE01DF91CF911F910C94670340E08B
:100CB000682F81E492E00C941E05CF93DF93CDB7AB
:100CC000DEB728970FB6F894DEBF0FBECDBF98E011
:100CD000E6E0F1E0DE01119601900D929A95E1F7C0
:100CE00090915402961710F46FEF690FFE01319640
:100CF000E60FF11DE60FF11D9081890F806828969F
:100D00000FB6F894DEBF0FBECDBFDF91CF910C942C
:100D10005706CF92DF92EF92FF92DC01A03282E081
:100D2000B8070CF03EC0B7FD06C0A53BB1052CF0DE
:100D3000A4EBB0E002C0A0E0B0E080913F0228E860
:100D400030E06901C81AD10887FDD394CC0CDD1CB2
:100D5000CC0CDD1C0D2C000CEE08FF08809140022D
:100D600028E532E0281B310987FD3395220F331F18
:100D7000220F331FA901330F660B770B9A01AB01CA
:100D80002C193D094E095F090E94380E24EB30E012
:100D900040E050E00E940E0EC20ED31EE41EF51E6F
:100DA000D60190913E029C3098F580913F0248E830
:100DB00050E0481B510987FD5395440F551F440FC0
:100DC000551FA417B5078CF08091400228E532E04A
:100DD000281B310987FD3395220F331F220F331F44
:100DE000AD012A173B070CF4A90142505109440FE9
:100DF000551F2FB7F894892F90E0FC01EE0FFF1FCD
:100E00008E0F9F1FFC01E75EFD4F528341832FBF72
:100E1000FF90EF90DF90CF9008958F929F92AF92C6
:100E2000BF92CF92DF92EF92FF92CF93DF93CDB735
:100E3000DEB7A1970FB6F894DEBF0FBECDBF6C0131
:100E4000990FEE08FF08F7FE2AC041E06DE281E449
:100E500092E00E941E0522273327A9012C193D0983
:100E60004E095F0919A2CE0181967C019AE0892E74
:100E7000912CA12CB12CCA01B901A50194010E94A9
:100E8000400E605DF70162937F0121153105410538
:100E9000510589F7CF010E94D20501961DC0A70117
:100EA000960119A2CE0181967C018AE0882E912CB0
:100EB000A12CB12CCA01B901A50194010E94400ED8
:100EC000605DF70162937F012115310541055105F0
:100ED00089F7CF010E94D205A1960FB6F894DEBF24
:100EE0000FBECDBFDF91CF91FF90EF90DF90CF90FD
:100EF000BF90AF909F908F900895CF93DF93282F4E
:100F000030E0F901E255FF4F8491F901E656FF4FB9
:100F1000D491F901EA57FF4FC491CC2391F081118C
:100F20000E948405EC2FF0E0EE0FFF1FE458FF4F06
:100F3000A591B491EC91ED2381E090E021F480E063
:100F400002C080E090E0DF91CF9108951F93CF938E
:100F5000DF93282F30E0F901E255FF4F8491F9012A
:100F6000E656FF4FD491F901EA57FF4FC491CC23C5
:100F7000C1F0162F81110E948405EC2FF0E0EE0FD6
:100F8000FF1FEE58FF4FA591B4919FB7F894111130
:100F900004C08C91D095D82302C0EC91DE2BDC9359
:100FA0009FBFDF91CF911F910895CF93DF9390E082
:100FB000FC01E656FF4F2491FC01EA57FF4F849154
:100FC000882361F190E0880F991FFC01E859FF4FD9
:100FD000C591D491FC01EE58FF4FA591B4916111D8
:100FE00009C09FB7F8948881209582238883EC916B
:100FF0002E230BC0623061F49FB7F8948881322FA2
:10100000309583238883EC912E2B2C939FBF06C0B1
:101010008FB7F894E8812E2B28838FBFDF91CF9173
:101020000895FC01962F818D8F3F31F0683058F480
:10103000CF014A960C94400685898F3F21F461E0E8
:10104000892F0C94D50708958F929F92AF92BF92EB
:10105000CF92DF92EF92FF926B017C010E94AD056F
:101060004B015C01C114D104E104F104F1F00E94D0
:10107000AD05DC01CB0188199909AA09BB09883E95
:101080009340A105B10570F321E0C21AD108E1082F
:10109000F10888EE880E83E0981EA11CB11CC114D3
:1010A000D104E104F10419F7DDCFFF90EF90DF9058
:1010B000CF90BF90AF909F908F9008951F920F9206
:1010C0000FB60F9211242F933F938F939F93AF935B
:1010D000BF9380915D0290915E02A0915F02B091FA
:1010E000600230915C0223E0230F2D3720F401963B
:1010F000A11DB11D05C026E8230F0296A11DB11D3B
:1011000020935C0280935D0290935E02A0935F0245
:10111000B09360028091610290916202A09163029B
:10112000B09164020196A11DB11D8093610290935C
:101130006202A0936302B0936402BF91AF919F914A
:101140008F913F912F910F900FBE0F901F90189588
:10115000CF93DF93CDB7DEB7E0970FB6F894DEBF3D
:101160000FBECDBF789484B5826084BD84B58160A4
:1011700084BD85B5826085BD85B5816085BD809162
:101180006E00816080936E001092810080918100DA
:1011900082608093810080918100816080938100D2
:1011A000809180008160809380008091B100846094
:1011B0008093B1008091B00081608093B0008091F5
:1011C0007A00846080937A0080917A0082608093B4
:1011D0007A0080917A00816080937A0080917A0011
:1011E000806880937A001092C10080915A028F3FEC
:1011F00009F4AAC0877080935B021092AD0110922F
:10120000AC011092EA0110920C021092E80111E078
:101210001093E7011092C20161E082E10E94A607EB
:1012200061E083E10E94A6078091B9008E7F8093E0
:10123000B9008091B9008D7F8093B90088E48093D4
:10124000B80085E48093BC008CE890E09093AB01FB
:101250008093AA018DE890E09093A9018093A80162
:1012600080915B0280621093E90180930B021092DF
:10127000EA0110920C0260E08DE092E00E944301CE
:101280006FEF8DE092E00E94430160E08DE092E01C
:101290000E94430160E08DE092E00E94430160E023
:1012A0008DE092E00E94430160E08DE092E00E94B8
:1012B000430160E08DE092E00E94430160E08DE038
:1012C00092E00E94430160E08DE092E00E944301C1
:1012D00060E08DE092E00E94430160E08DE092E0EA
:1012E0000E94430181E00E94E40567E08BE592E003
:1012F0000E94400669E08BE592E00E948203482F3D
:10130000406869E08BE592E00E94670308E412E020
:10131000F80161918F0181E492E00E941108F2E0EE
:101320000C341F07A9F760914502683020F48BE563
:1013300092E00E94400660914702683060F58BE5BC
:1013400092E00E94400627C08091560261E08F3FE4
:1013500091F0809157020E94D50761E0809156027A
:101360000E94D50761E0809158020E94D50780E86D
:101370008093590210C0809145020E94D507809148
:1013800046028F3F19F061E00E94D50761E080912D
:1013900047020E94D50780915002886080935002D6
:1013A00082E080935402109255028BE39DE00197F6
:1013B000F1F740E06091450281E492E00E94E6038B
:1013C00040E06091470281E492E00E94E603609170
:1013D00046026F3F29F040E081E492E00E94E6037C
:1013E0008091500284FD21C063E081E492E00E947C
:1013F0007C040BE416E4C8010197F1F763E081E493
:1014000092E00E947C04C8010197F1F763E081E457
:1014100092E00E947C0483E592E00197F1F762E09C
:1014200081E492E00E947C0415C080620E9457060D
:101430008BE496E40197F1F78091500280620E945C
:10144000570683E592E00197F1F7809150028062A0
:101450000E9457068091500280620E94570684E0E5
:10146000809351028CE00E94570681E00E9457064B
:101470008BE39FE10197F1F782E08093520286E0CF
:101480000E94570660E080E00E945D068CE291E0D9
:101490000E94D20561E080E00E945D0685E391E054
:1014A0000E94D20561E089E00E945D068EE391E032
:1014B0000E94D20580E480937C0080917A00806451
:1014C00080937A0080917A0086FDFCCF609178004D
:1014D0008091790070E0782B072E000C880B990B17
:1014E000611571058105910511F00E94050E60E0FE
:1014F00083E00E94D50760E084E00E94D50760E0A9
:1015000085E00E94D50760E086E00E94D50761E093
:101510008AE00E94D50761E08BE00E94D50761E078
:101520008CE00E94D50761E08DE00E94D50761E064
:1015300087E00E94D50761E088E00E94D50761E05E
:1015400089E00E94D50780913E028C3008F051C09E
:1015500061E082E00E94D50780913E02E82FF0E032
:101560009F01220F331FE20FF31FE75EFD4F9081B3
:10157000907C9260908310923F02109240026CE047
:101580000E94710E2CE0829FB001112440E050E0D7
:101590009B01240F351FF901EE0FFF1F2E0F3F1F78
:1015A000F901E75EFD4F908196FD16C04F5F5F4FDA
:1015B0004C30510569F781110FC01092800082E014
:1015C000809381001092850010928400B19A8091DE
:1015D0006F00826080936F00E0913E02F0E0CF01E7
:1015E000880F991FE80FF91FE75EFD4F8081806427
:1015F0008083CE0189969AA789A7E7EC2E2E312CFD
:10160000412C512C66246394712CEDB7FEB7FCA7D6
:10161000EBA78FE00E947D079EA78DA780E090E05A
:101620000E94890660E089E00E945D0680E491E006
:101630000E94D20560E089E00E945D068091000171
:10164000909101010E940D078091C0019091C1010C
:10165000892B09F061C09E012F5F3F4F79018E01F8
:101660000B5E1F4FF80111821082F7011192119247
:101670007F010E94B70DA20191010E940E0E4B0145
:101680005C01FFEF8F1A9F0AAF0ABF0A23E382169D
:101690009104A104B1042CF41092BF011092BE0178
:1016A00029C04B015C0132E3831A9108A108B108FB
:1016B000E2E38E169104A104B10428F47092BF01F4
:1016C0006092BE0117C0DC01CB0184569109A109CB
:1016D000B109C297A105B10538F422E030E030939A
:1016E000BF012093BE0106C083E090E09093BF014C
:1016F0008093BE018091BE019091BF01F80181935A
:1017000091938F0129A53AA5E217F30709F0AACF13
:101710007092C1016092C0018091BC019091BD01A5
:10172000892BD1F568EC70E080E090E00E942408FD
:101730008E010B5E1F4FE12CF12C809100019091E6
:101740000101E816F90624F5F801808191810E5F08
:101750001F4F8093BA019093BB016AE0D62ED80E3A
:1017600061E08D2D0E94A60764EF71E080E090E0BB
:101770000E94240860E08D2D0E94A60762E370E0BD
:1017800080E090E00E942408FFEFEF1AFF0AD5CF17
:101790007092BD016092BC01E12CF12CA12CB12C06
:1017A0000091000110910101E016F1060CF077C0E4
:1017B000A114B104A1F442EBC42E41E0D42E53E0B5
:1017C000952E892D0E947D07F601819391936F01DB
:1017D000A80EB91E9394F7E09F12F3CFE9CF22EB46
:1017E000822E21E0922EC12CD12CC701880F991F87
:1017F00021E030E02C0F3D1F280F391F38AB2FA7F9
:10180000F401808191810197F1F46CE271E080E054
:1018100090E00E94240861E09AE0B92EBC0C8B2D68
:101820000E94A60760E08B2D0E94A6071092BD01C2
:101830001092BC01EFA5F8A9D182C082F4011182F7
:101840001082A12CB12CFFEFCF1ADF0A22E0820E0A
:10185000911C34E0C316D10499F6F701EE0FFF1F77
:1018600081E090E08C0F9D1FE80FF91F20813181EE
:10187000848995892817390749F487010F5F1F4F1D
:101880007092B1016092B00178018ACF1092B101DB
:101890001092B0011092BD011092BC01F5CF809161
:1018A000B0019091B101009709F56CE271E080E020
:1018B00090E00E94240861E087E00E94A60768EE9D
:1018C00073E080E090E00E94240860E087E00E94DE
:1018D000A60764EF71E080E090E00E9424080F5FAB
:1018E0001F4F109301010093000138C00197D1F5FB
:1018F0008091AE019091AF01800F911F9093AF0145
:101900008093AE010F5F1F4F109301010093000100
:1019100061E089E00E945D0680E491E00E94D205CA
:1019200061E089E00E945D068091AE019091AF0177
:101930000E940D0761E089E00E94A60768EE73E04F
:1019400080E090E00E94240860E089E00E94A60701
:1019500064EF71E080E090E00E9424081092BD01E5
:101960001092BC0180910001909101010B9769F0E8
:101970000FB6F894DEBF0FBECDBF20E030E0232BC2
:1019800009F443CE0E9400003DCE64EF71E080E098
:1019900090E00E9424081AE061E0812F0E94A607CF
:1019A0001F5F1E30C9F764EF71E080E090E00E9495
:1019B00024081AE060E0812F0E94A6071F5F1E30F6
:1019C000C9F768EC70E080E090E00E9424081AE01B
:1019D00061E0812F0E94A6071F5F1E30C9F764EFE8
:1019E00071E080E090E00E9424081AE060E0812F1E
:1019F0000E94A6071F5F1E30C9F764EF71E080E008
:101A000090E00E9424088091AE019091AF018897E8
:101A100054F08AE590E00E94890660E177E280E078
:101A200090E00E9424088DA59EA5892BE1F3A0CF0C
:101A30001092100210920F0288EE93E0A0E0B0E046
:101A40008093110290931202A0931302B093140298
:101A500082E191E090930E0280930D021092440275
:101A60001092430284E291E09093420280934102FB
:101A700010925A021092500281E0809345029FEF2B
:101A80009093460282E08093470283E0809348026D
:101A900084E08093490285E080934A0286E0809347
:101AA0004B0280913D028C30A0F491E0980F90930E
:101AB0003D0280933E0290E0FC01EE0FFF1F8E0F6F
:101AC0009F1FFC01E75EFD4F88EB9BE092838183C3
:101AD000089590933E0208958F929F92AF92BF9285
:101AE000CF92DF92EF92FF92CF93DF93EC01688168
:101AF00079818A819B81611571058105910521F4A8
:101B000064E279ED8BE597E02DE133EF41E050E0C1
:101B10000E940E0E49015A019B01AC01A7EAB1E4F3
:101B20000E942D0E6B017C01ACEEB4EFA501940177
:101B30000E943B0EDC01CB018C0D9D1DAE1DBF1D17
:101B4000B7FF03C00197A109B04888839983AA838E
:101B5000BB83BC01CD019F77DF91CF91FF90EF90C8
:101B6000DF90CF90BF90AF909F908F9008958F920D
:101B70009F92AF92BF92CF92DF92EF92FF926091CD
:101B8000020170910301809104019091050161159A
:101B900071058105910521F464E279ED8BE597E00B
:101BA0002DE133EF41E050E00E940E0E49015A0151
:101BB0009B01AC01A7EAB1E40E942D0E6B017C01F0
:101BC000ACEEB4EFA50194010E943B0EDC01CB0109
:101BD0008C0D9D1DAE1DBF1DB7FF03C00197A10950
:101BE000B0488093020190930301A0930401B09345
:101BF0000501BC01CD019F77FF90EF90DF90CF9062
:101C0000BF90AF909F908F90089560930201709362
:101C1000030180930401909305010895052E97FB1D
:101C20001EF400940E94250E57FD07D00E94400E1E
:101C300007FC03D04EF40C94250E5095409530953A
:101C400021953F4F4F4F5F4F089590958095709528
:101C500061957F4F8F4F9F4F08950E94620EA59F01
:101C6000900DB49F900DA49F800D911D1124089597
:101C7000B7FF0C942D0E0E942D0E821B930B08951E
:101C8000A1E21A2EAA1BBB1BFD010DC0AA1FBB1F80
:101C9000EE1FFF1FA217B307E407F50720F0A21BF2
:101CA000B30BE40BF50B661F771F881F991F1A945F
:101CB00069F760957095809590959B01AC01BD0189
:101CC000CF010895A29FB001B39FC001A39F700DE3
:101CD000811D1124911DB29F700D811D1124911D34
:101CE0000895991B79E004C0991F961708F0961B78
:101CF000881F7A95C9F780950895EE0FFF1F05900C
:101D0000F491E02D099481E090E0F8940C94880E11
:041D1000F894FFCF75
:101D14000100010000000000400014005400000015
:101D24000000430116017301EA000E01FA00EB0002
:101D3400000000007E058E00730172014C4556457B
:101D44004C203A200053434F5245203A20003000A3
:041D5400202000004B
:00000001FF
